:100000000C942A000C9434000C9434000C943400AA
:100010000C9434000C9434000C9434000C94340090
:100020000C9434000C9434000C9434000C94340080
:100030000C9434000C9434000C9434000C94340070
:100040000C9434000C9434000C9434000C94340060
:100050000C94340011241FBECFE5D8E0DEBFCDBF25
:100060000E9436000C9454010C9400002F923F9291
:100070004F925F926F927F928F929F92AF92BF92B8
:10008000CF92DF92EF92FF920F931F93DF93CF9364
:1000900000D000D0CDB7DEB78FEF81BB84BBBB9A59
:1000A0001ABA379A86B1866086B987B1806C87B9EB
:1000B0003D9A87B187B980E69AEE0197F1F7A89843
:1000C000A998AA9A88E382BBAA9820E137E2C901DD
:1000D0000197F1F7AA9A98E6892F8A95F1F7A898DF
:1000E000A998AA9A8FE082BBAA98F9013197F1F7F3
:1000F000AA9A9A95F1F7A898A998AA9A81E082BB42
:10010000AA98C9010197F1F7AA9A80EA9FE001979E
:10011000F1F7A898A998AA9A86E082BBAA98C90183
:100120000197F1F7AA9A85E783BF19BE1CBEAE9866
:10013000AF9A5E010894A11CB11C60E1E62E67E253
:10014000F62E50E2C52E5EE4D52E49E1242E36E689
:10015000332E22EB422E95EE592E66246A9488ECBB
:10016000882E912C77247394369A349BFECF85B1D8
:10017000082F10E0C801B5014AE050E00E940F01CD
:10018000A89AA998AA9AF50109C082BBAA98C701A2
:100190000197F1F7AA9AC6010197F1F78191882397
:1001A000A1F78FED82BBAA98C7010197F1F7AA9A30
:1001B000C6010197F1F783E482BBAA98C7010197B2
:1001C000F1F7AA9AC6010197F1F70530110510F46D
:1001D0006CBE15C00A30110510F45CBE10C00F30A3
:1001E000110510F44CBE0BC00431110510F43CBED7
:1001F00006C00931110510F42CBE01C01CBE80EAF6
:100200009FE0F4013197F1F70197D9F7A898A998E1
:10021000AA9A72BAAA98C7010197F1F7A5CFFB0174
:100220009F01E8944230C4F04532B4F44A3029F4D6
:1002300097FB1EF4909581959F4F642F77270E941E
:100240004001805D8A330CF0895D8193CB0100977A
:10025000A1F716F45DE251931082C9010C943001AC
:10026000DC01FC01672F71917723E1F7329704C01D
:100270007C916D9370836291AE17BF07C8F30895A8
:10028000AA1BBB1B51E107C0AA1FBB1FA617B707BC
:1002900010F0A61BB70B881F991F5A95A9F78095D8
:0C02A0009095BC01CD010895F894FFCFAB
:00000001FF
